:100AE400114A3F065B4F666D7D077F6F777C395EE9
:100AF4007971400A30BF86DBCFE6EDFD87FFEF0159
:100B04002B00046300000000046700000000046B75
:100B140000000000042300000000043E0000000068
:100B2400043A0000000002270000022900000242EB
:0A0B34000000024400000246000029
:100D3800EFA2E713A2E71324FF92A2EF75F00412C3
:100D48000442AEF0EEA2E71324FF92A1EF75F00281
:0B0D5800120442AFF0EF24FF92A02233
:100CCF007F02120D38744A2521120D637F03120D16
:100CDF0038744A252C120D637F06120D38744A257D
:100CEF0022120D637F07120D38744A252DF8E6F591
:080CFF00807F057E00020D6BF1
:080D6300F8E6F5807F057E0033
:100D6B00EF1FAA0670011E4A60107C007D3CED1D32
:0A0D7B00AA0470011C4A60E880F42D
:010D8500224B
:100A6E008E118F12AB05AA047C007D641204648F74
:100A7E0021AE11AF127C007D641204648C118D12B4
:100A8E00AE11AF127C007D0A1204648F2CAE11AF32
:100A9E00127C007D0A1204648C118D1285122E7C3C
:100AAE00007D64AF03AE021204648F227C007D646D
:100ABE00AF03AE02120464AA04AB057C007D0AAF3C
:100ACE0003AE021204648F2D7C007D0AAF03AE02CA
:060ADE001204648D2F22BA
:100DA800E4FDFCC3ED9FEC9E5015E4FBFA0BBB0081
:0F0DB800010AEB64794A70F50DBD00010C80E46F
:010DC7002209
:0E0E31007F027E00EF1FAC0670011E4C70F6B3
:010E3F002290
:0E0E40007F0A7E00EF1FAC0670011E4C70F69C
:010E4E002281
:0F0E4F00D2A6D2A5120E31C2A6120E31C2A52212
:0C0E7900C2A6D2A5120E31D2A6020E3184
:0E0E5E00A20092A6D2A5120E31C2A5020E313C
:0D0E6C00D2A5120E31A2A6C2A5120E31228F
:050DC800120E4F7FA692
:020DCD00AD0770
:100DCF00E4FBED25E0FD92A6D2A5120E31C2A512CD
:090DDF000E310BBB08EC020E6C96
:100DE800E4FDD2A6FBED25E0FDD2A5120E31A2A6A8
:0F0DF800E4334205C2A5120E310BBB08E8AF056C
:010E070022C8
:100E1D00AA05A907120DC8AF01120DCDAF02120D13
:040E2D00CD020E796B
:020D8600AA07BA
:100D8800120DC8AF02120DCD120E4F7FA7120DCD56
:0F0D9800120DE8AD07D200120E5E120E79AF05F4
:010DA7002229
:100D0700120DC87F32120DCD120E4F7FA7120DCDD7
:100D1700E4FA120DE8745B2AF8A607BA0504D200B4
:100D27008002C200120E5E0ABA06E7120E79020EA0
:010D3700407B
:100E08007D0B7F31120E1D7D087F2C120E1D7D0873
:050E18007F2D020E1DFC
:100BE000E55CFE7C00E4255BF549EC3EF548C3641A
:100BF000809480500BC3E49549F549E49548F54845
:100C0000AC48AD49EC12033B7B9A7A9979797840EC
:0B0C10001201068F668E658D648C63F8
:010C1B0022B6
:100C1C00E55EFE7C00E4255DF549EC3EF548C364D9
:100C2C00809480500BC3E49549F549E49548F54808
:100C3C00AC48AD49EC12033B7B9A7A9979797840B0
:0B0C4C001201068F6A8E698D688C67AC
:010C5700227A
:100C5800E560FE7C00E4255FF549EC3EF548C36499
:100C6800809480500BC3E49549F549E49548F548CC
:100C7800AC48AD49EC12033B7B9A7A997979784074
:0B0C88001201068F6E8E6D8D6C8C6B60
:010C9300223E
:10051D000543E54370020542D39413E54294005020
:10052D000302060AE4FBFA79A07841AF41AE40AD73
:10053D003FAC3E12020F1203748E298F2AE4FBFA90
:10054D0079A07841AF3DAE3CAD3BAC3A12020F12F3
:10055D0003748E278F28E54524FFFFE54434FFFE05
:10056D00D3EF9528EE95277E0050047F0180027F02
:10057D0000E5452401FDE43544FCD3EF9DEE9C5090
:10058D004AE54724FFFFE54634FFFED3EF952AEEFB
:10059D0095297E0050047F0180027F00E5472401EC
:1005AD00FDE43546FCD3EF9DEE9C501FC3E5289529
:1005BD0045FFE5279544FE120E85C006C007C3E52D
:1005CD002A9547FFE5299546FE800FAF28AE2712E5
:1005DD000E85C006C007AF2AAE29120E85AC06AD3A
:1005ED0007D007D006120A6EE4F542F543F541F542
:1005FD0040F53FF53EF53DF53CF53BF53A120BE088
:10060D00120C1C120C58AF66AE65AD64AC631203D0
:10061D00258F668E658D648C63AF6AAE69AD68ACEF
:10062D00671203258F6A8E698D688C67A804A905EA
:10063D00AA06AB07120106C004C005C006C007AF6D
:10064D0066AE65AD64AC63A804A905AA06AB071236
:10065D000106D003D002D001D000120015C004C095
:10066D0005C006C007AF6EAE6DAD6CAC6BA804A92E
:10067D0005AA06AB07120106D003D002D001D000A7
:10068D0012001512093CA804A905AA06AB07AF660E
:10069D00AE65AD64AC6312020F120C94E4FBFA79F3
:1006AD003478431201067BDB7A0F794978401202C8
:1006BD000F8F108E0F8D0E8C0DAF6AAE69AD68ACBD
:1006CD0067A804A905AA06AB07120106C004C00558
:1006DD00C006C007AF66AE65AD64AC63A804A905DE
:1006ED00AA06AB07120106D003D002D001D000122A
:1006FD000015C004C005C006C007AF6EAE6DAD6C71
:10070D00AC6BA804A905AA06AB07120106D003D04D
:10071D0002D001D00012001512093CA804A905AAA7
:10072D0006AB07AF6AAE69AD68AC6712020F120C6B
:10073D0094E4FBFA793478431201067BDB7A0F7966
:10074D0049784012020F8F0C8E0B8D0A8C09E4FF35
:10075D00FEFDFCAB10AA0FA90EA80D1202AC501392
:10076D00AF10AE0FAD0EAC0D1203258F108E0F8D89
:10077D000E8C0DE4FFFEFDFCAB0CAA0BA90AA8091B
:10078D001202AC5013AF0CAE0BAD0AAC091203251F
:10079D008F0C8E0B8D0A8C09AF0CAE0BAD0AAC090C
:1007AD00E4FBFA792078411201068F0C8E0B8D0A2D
:1007BD008C09AF10AE0FAD0EAC0DE4FBFA792078BD
:1007CD00411201068F108E0F8D0E8C0DAF41AE4074
:1007DD00AD3FAC3EAB0CAA0BA90AA8091200158FB0
:1007ED00418E408D3F8C3EAF3DAE3CAD3BAC3AAB08
:1007FD0010AA0FA90EA80D1200158F3D8E3C8D3B32
:02080D008C3A23
:01080F0022C6
:100B3F007FF47E01120DA8E4F5937594FFF595757A
:100B4F009608C2A3120E08E4FF120D868F0875894E
:100B5F000175A892758CFC758A17D28C120D07122D
:100B6F00051D20B2F77F057E00120DA820B21212CC
:100B7F000D0712051D852744852845852946852A99
:060B8F004720B2D880FBF4
:03000B00020B9550
:100B9500C0E0C0F0C083C082C0D075D000C000C026
:100BA50001C002C003C004C005C006C007C28C75E1
:100BB500A800120CCF758CFE758A0BD28C75A89285
:100BC500D007D006D005D004D003D002D001D00084
:0B0BD500D0D0D082D083D0F0D0E0322E
:10000E000203E0E86480F8E933E83360110460F03D
:10001E00ED33EC337009E8FCE9FDEAFEEBFF220458
:10002E0060DED3EB9FEA9EE99DE8C2E78CF0C2F753
:10003E0095F0400CE8CCF8E9CDF9EACEFAEBCFFB1F
:10004E001203AB85D0F05804700320D5B3E80470CA
:10005E00075002B2D50203EA92D5EC0460F7E4CC65
:10006E00C0E0C398F8603B94186008400DD0E0FBE8
:10007E000203C2E4FBFAC9FC8028E830E406E4C9B6
:10008E00FBE4CAFCE830E305E4C9CACBFCE854073C
:10009E006010F8C3E913F9EA13FAEB13FBEC13FC47
:1000AE00D8F130F52FC3E49CFCEF9BFFEE9AFEEDEA
:1000BE0099FDD0E0FBEF4E4D4C701222DB03020394
:1000CE00E7EC2CFCEF33FFEE33FEED33FDED30E7C6
:1000DE00EB0203C2EF2BFFEE3AFEED39FDD0E0FB53
:1000EE0050130BBB00030203EAED13FDEE13FEEFFC
:0800FE0013FFEC13FC0203C226
:10010600EC4D6011E8497017ED33EC3304600DE4F3
:10011600FCFFFEFD22E933E8330470F80203E01227
:1001260003AB58046009E4CC248150062850090228
:1001360003EA2840030203E7C0E0EB4A7044B980B3
:1001460006D0E0FB0203D6EF4E701CBD8008EBFF25
:10015600EAFEE9FD80EBE98DF0A4FEE5F00201EF91
:10016600E9CDF9EAFEEBFFEF89F0A4FCE5F0CE89D4
:10017600F0A42EFFE435F0CD89F0A42DFEE435F091
:100186008067EF4E7005BD80D780C3EF8BF0A4ACBF
:10019600F0EE8BF0A42CFCE435F0F8EF8AF0A42CFA
:1001A600E5F038FCE433CB8DF0A42CFCE5F03BF80D
:1001B600EE8AF0A42CFCE5F038F8E433CF89F0A4FD
:1001C6002CFCE5F038CF3400CE89F0A42FFFE5F003
:1001D6003EFEE433C98DF0A42EFEE5F039CD8AF05B
:1001E600A42FFFE5F03EFEE43DFD33D0E0FB5007D3
:1001F6000BBB000F0203EAEC2CFCEF33FFEE33FEE1
:06020600ED33FD0203C20E
:10020C000203EAEC5D046005E8590470030203E0A4
:10021C001203AB580460F6EC4860F2EC7004FDFE7F
:10022C00FF22C860DB2481C85009C39860025006C5
:10023C000203E79850CAF582E9294B4A7005AB8254
:10024C000203D675F0007C1A7880C3EF9BEE9AED12
:10025C0099400DC3EF9BFFEE9AFEED99FDE842F03D
:10026C00DC23ACF0D0E0FFD0E0FED0E0FDAB822090
:10027C00E7101BEB60BAEC2CFCEF33FFEE33FEED1A
:10028C0033FD0203C2E803F830E705C0F075F00057
:10029C00EF2FFFEE33FEED33FD40B830E7C280AAFE
:1002AC0074F8CC6480CCC86480C8F58204604FC3F9
:1002BC00EB9FF5F0EA9E42F0E99D42F0E89C45F098
:1002CC00603C501DE5825FFFE582D313CB5BCBF422
:1002DC002B5582FB50280ABA002409B9002008804B
:1002EC001DE5825BFBE582D313CF5FCFF4C3132FE5
:1002FC005582FF50090EBE00050DBD00010CC3EB6D
:10030C009FF5F0EA9E42F0E99D42F0E89C45F060D2
:09031C0007CC4820E701B3EC22F4
:10032500ED33EC33600A047003BD8004ECB2E7FCE6
:0103350022A5
:1003360075F020800E75F010800575F0087D007E42
:10034600007F003392D530D50312049AEC33401067
:10035600EF33FFEE33FEED33FDEC33FCD5F0ED224B
:0E036600E5F0247EA2D513CC92E7CDCEFF2287
:10037400EDD2E7CD33EC3392D524814006E4FFFE81
:10038400FDFC22FCE4CFCECDCC24E0501174FF80E0
:10039400EDC3CC13CCCD13CDCE13CECF13CF04707D
:0703A400F030D5DE02049ADF
:100938000203E022EDA2E7D2E7F9EC3340F260F3DC
:10094800B4FF08ED547F70E80203EAF82481C2E09E
:10095800C0E0F40428FAC313FCED92E7FD8C118D76
:10096800128E138F14EEA2E7E9BA7F02C313340084
:100978009400FA75F091A4E5F013F494FE8AF0A4BB
:1009880033E5F033248CD313FDE492E7FE7F007C3B
:100998003F758302ECC0E0F8EDC0E0F9EEC0E0FA84
:1009A800EFC0E0FBAC11AD12AE13AF1412020FD0C2
:1009B800E0FBD0E0FAD0E0F9D0E0F8120015ED64E1
:1009C80080FD30E7011CD583CBED33CC33F8D0E084
:0A09D800A2E71328C313CC13FD227D
:100C9400ECC0E0F8EDC0E0F9EEC0E0FAEFC0E0FB34
:100CA400120106EC6480FC7B007A007980783F12A4
:100CB400001512093CD0E0CFFBD0E0CEFAD0E0CD55
:0B0CC400F9D0E0CCF812020F0208305B
:1003AB00E9D2E7C933E833F892D5EDD2E7CD33EC98
:0703BB0033FC5002B2D52211
:1003C200EC30E7100FBF000C0EBE00080DBD00049C
:1003D2000BEB6014A2D5EB13FCED92E7FD2274FF48
:1003E200FCFDFEFF22E480F8A2D574FF13FC7D80A1
:0303F200E480EFB5
:10081000BE1249253E4CCCCDBEAAAAAB3F800000FB
:100820003E7ADBB03EED63383F24BC7D3F490FDBB1
:10083000ED33ECC2E7CC339200B4FF13ED547F608C
:10084000030203E07FDB7E0F7DC97C3F02092BC2E0
:1008500001C3947F401E7007EDD2E794904015EFDE
:10086000FBEEFAEDF9ECF87F007E007D807C3F1214
:10087000020FD201ED33EC33248430E705E4C0E00D
:10088000806D04FAEDD2E754F0C333DAFD54073437
:10089000002323C0E0CCC0E0F8EDC0E0F9EEC0E0FA
:1008A000FAEFC0E0FBE4120340EC24FEFC8C118D57
:1008B000128E138F141201067B007A007980783F24
:1008C000120015ECC511B2E7FCEDC512FDEEC51323
:1008D000FEEFC514FFD0E0FBD0E0FAD0E0F9D0E0A5
:1008E000F8120015A811A912AA13AB1412020F8C4A
:1008F000118D128E138F1490081074031203F5A833
:1009000011A912AA13AB14120106D0E0600F241C27
:10091000F582E43408F5831204B812001530010B97
:100920007BDB7A0F79C978BF120015ED33EC3360A9
:0809300006ECA20092E7FC2294
:1003F500C0E0EFFBEEFAEDF9ECF8120106D0E0F5FE
:10040500F0EFFBEEFAEDF9ECF81204A8A3A3A3A311
:10041500E8C0E0E9C0E0EAC0E0EBC0E0C0F01201EE
:10042500061204B8A3A3A3A3120015D0F0D0E0FBD5
:0D043500D0E0FAD0E0F9D0E0F8D5F0D42204
:030000000209E210
:0C09E200787FE4F6D8FD75816E020A29CA
:10044200C2D530F707B2D563F0FF05F030E70CB242
:10045200D5F4048463F0FF05F080018430D502F402
:02046200042272
:10046400C2D5EC30E709B2D5E4C39DFDE49CFCEEB3
:1004740030E715B2D5E4C39FFFE49EFE1204C8C35F
:10048400E49DFDE49CFC80031204C830D507C3E45A
:060494009FFFE49EFE2222
:0E049A00C3E49FFFE49EFEE49DFDE49CFC2273
:1004A800E493FC740193FD740293FE740393FF229A
:1004B800E493F8740193F9740293FA740393FB229A
:0C0E8500EE30E707C3E49FFFE49EFE226E
:1009EE00020B3FE493A3F8E493A34003F68001F2D5
:1009FE0008DFF48029E493A3F85407240CC8C3330A
:100A0E00C4540F4420C8834004F456800146F6DFD8
:100A1E00E4800B0102040810204080900AE4E47E7A
:100A2E00019360BCA3FF543F30E509541FFEE493CD
:100A3E00A360010ECF54C025E060A840B8E493A394
:100A4E00FAE493A3F8E493A3C8C582C8CAC583CABF
:100A5E00F0A3C8C582C8CAC583CADFE9DEE780BE77
:010B3E0000B6
:1004C800BC000BBE0029EF8DF084FFADF022E4CC18
:1004D800F875F008EF2FFFEE33FEEC33FCEE9DECE1
:1004E800984005FCEE9DFE0FD5F0E9E4CEFD22ED27
:1004F800F8F5F0EE8420D21CFEADF075F008EF2F71
:10050800FFED33FD4007985006D5F0F222C398FD61
:050518000FD5F0EA22FE
:00000001FF
