:101481007FF47E01121954121A12121A381219CA53
:101491001219E1121994E4FF1218FDEF64E56002DC
:1014A10080FE121726786DE2FE786BE22400791D2A
:1014B100F318E23E19F37871E2FE786FE2240079C5
:1014C1001FF318E23E19F37875E2FE7873E2240007
:1014D1007921F318E23E19F378ABE2600712058136
:1014E100E478ABF27822E270257861E270207862CC
:1014F100E2701B7863E27016785EE2B40110121795
:1015010026E4FFFE12001EE4785EF212000E78223D
:10151100E2B401C4785EE2B401BE1217267F017EF7
:0D1521000012001EE4785EF212000E80AB96
:1012840083411E140A812F00812C008128008127AC
:1012940000813000812900821C0000821E0000822F
:1012A400200000844600000000844A0000000084FE
:1012B4004E00000000826400008266000082680024
:1012C40000823B000082370000823D00008452000F
:1012D400000000845600000000845A0000000082D0
:1012E400000000821A0000812200816100816200F6
:1012F400816300815E0082250000822D000082232C
:101304000000822A000082060000820E000082167D
:101314000000823F000082330001823500018239DF
:061324000001823100000F
:10186700786DE2FE786BE22400FF18E23EFE781CFA
:10187700E2FC08E2FDC3EF9DFFEE9CFEC36480948B
:10188700805007C3E49FFFE49EFE7864EEF208EF02
:01189700F25E
:01189800222D
:101899007871E2FE786FE22400FF18E23EFE781EBE
:1018A900E2FC08E2FDC3EF9DFFEE9CFEC364809459
:1018B900805007C3E49FFFE49EFE7866EEF208EFCE
:0118C900F22C
:0118CA0022FB
:1018CB007875E2FE7873E22400FF18E23EFE782082
:1018DB00E2FC08E2FDC3EF9DFFEE9CFEC364809427
:1018EB00805007C3E49FFFE49EFE7868EEF208EF9A
:0118FB00F2FA
:0118FC0022C9
:100E99007837E2FC08E2FDE4120CB4C004C005C0D6
:100EA90006C007781A08E22441F8E2FCE4120CB9FA
:100EB900A804A905AA06AB07D007D006D005D00417
:100EC900120C127846E2FB08E2F908E2FA08E2CBD2
:100ED900F8120B0978DD120E8D783BE2FC08E2FD71
:100EE900E4120CB4C004C005C006C007781A08E2B1
:100EF9002441F8E2FCE4120CB9A804A905AA06AB3E
:100F090007D007D006D005D004120C12784AE2FBAC
:100F190008E2F908E2FA08E2CBF8120B0978D912CB
:100F29000E8D783DE2FC08E2FDE4120CB4C004C069
:100F390005C006C007781A08E22441F8E2FCE41269
:100F49000CB9A804A905AA06AB07D007D006D00595
:100F5900D004120C12784EE2FB08E2F908E2FA0812
:100F6900E2CBF8120B0978E1120E8D78D9E2FC0870
:100F7900E2FD08E2FE08E2FFA804A905AA06FB12A1
:100F89000B09C004C005C006C00778DDE2FC08E211
:100F9900FD08E2FE08E2FFA804A905AA06FB120B58
:100FA90009D003D002D001D000120A18C004C0052C
:100FB900C006C00778E1E2FC08E2FD08E2FE08E2AB
:100FC900FFA804A905AA06FB120B09D003D002D079
:100FD90001D000120A18121532C004A905AA06ABDD
:100FE9000778DDE2FC08E2FD08E2FE08E2FFD00036
:100FF900120C121216DCE4FBFA79347843120B094D
:101009007BDB7A0F79497840120C127852120E8DD7
:1010190078D9E2FC08E2FD08E2FE08E2FFA804A98B
:1010290005AA06FB120B09C004C005C006C0077853
:10103900DDE2FC08E2FD08E2FE08E2FFA804A905DA
:10104900AA06FB120B09D003D002D001D000120A64
:1010590018C004C005C006C00778E1E2FC08E2FD3B
:1010690008E2FE08E2FFA804A905AA06FB120B097B
:10107900D003D002D001D000120A18121532C004D0
:10108900A905AA06AB0778D9E2FC08E2FD08E2FE49
:1010990008E2FFD000120C121216DCE4FBFA7934D4
:1010A9007843120B097BDB7A0F79497840120C12CD
:1010B9007856120E8D78D9E2FC08E2FD08E2FE08A6
:1010C900E2FFA804A905AA06FB120B09C004C00582
:1010D900C006C00778DDE2FC08E2FD08E2FE08E28E
:1010E900FFA804A905AA06FB120B09D003D002D058
:1010F90001D000120A18C004C005C006C00778E173
:10110900E2FC08E2FD08E2FE08E2FFA804A905AA3C
:1011190006FB120B09D003D002D001D000120A1825
:10112900121532C004A905AA06AB0778E1E2FC084A
:10113900E2FD08E2FE08E2FFD000120C121216DCF2
:10114900E4FBFA79347843120B097BDB7A0F79498E
:0A1159007840120C12785A020E8D35
:10001E00AB07AA061218671218991218CB7864E269
:10002E00FE08E2FF7838E22FF218E23EF27866E23E
:10003E00FE08E2FF783CE22FF218E23EF27868E228
:10004E00FE08E2FF783EE22FF218E23EF27801E27D
:10005E002401F218E23400F2781A08E22441F8E2A0
:10006E00F9FF7801E26F700218E26003020580EB7F
:10007E004A6003020295E9FD7C007837E2FE08E251
:10008E00FF120DBBE47837F2EF08F2781A08E2247B
:10009E0041F8E2FD7C00783BE2FE08E2FF120DBB68
:1000AE00E4783BF2EF08F2781A08E22441F8E2FD18
:1000BE007C00783DE2FE08E2FF120DBBE4783DF2D3
:1000CE00EF08F27837E2FC08E2FDECC4F854F0C811
:1000DE00EDC4540F487827F2ED540F782CF2783B8C
:1000EE00E2FC08E2FDECC4F854F0C8EDC4540F482D
:1000FE007828F2ED540F782FF2783DE2FC08E2FDFD
:10010E00ECC4F854F0C8EDC4540F487829F2ED54FD
:10011E000F7830F27837E2FE08E2FFD3941EEE94A9
:10012E0000500E7806EEF208EFF27833E4F208048F
:10013E00F2C3EF9432EE9400400E780EEEF208EF1A
:10014E00F27835E4F20804F2D3EF941EEE940050E8
:10015E001F7836E26401700218E270147837E2FFFD
:10016E0008E27816CFF208EFF27839E4F20804F2DA
:10017E007806E2FE08E2FF780EE2FC08E2FDC39F7D
:10018E00FFEC9EFEC3EF9419EE6480948050030240
:10019E00022A7816E2FE08E2FFED9FFFEC9EFEC3F8
:1001AE00EF9419EE6480948040727836E2640170A8
:1001BE000218E270677834E26401700218E2705C33
:1001CE00783AE26401700218E270517832E224014A
:1001DE00F218E23400F2E2FE08E2FF7C007D0A1221
:1001EE000E107844EEF208EFF27831E2FE08E2FFEC
:1001FE007C007D0A120E10785FECF208EDF2E478C6
:10020E0006F208F2780EF208F27816F208F2783357
:10021E00F208F208F208F27839F208F27806E2FEF5
:10022E0008E2FFC3780FE29FFF18E29EFEC3EF9431
:10023E0019EE64809480404F7834E26401700218A5
:10024E00E270447836E26401700218E27039783256
:10025E00E22401F218E23400F2E2FE08E2FF7C0032
:10026E007D0A120E107844EEF208EFF27831E2FEBB
:10027E0008E2FF7C007D0A120E10785FECF208EDAA
:10028E00F2E47833F208F2EB64014A600302056B84
:10029E00120E99E4FFFE7D207C417852E2FB08E2CB
:1002AE00F908E2FA08E2CBF8120B09120CED7C0009
:1002BE007D0A120E10C3745A9F78D4F2E49E18F27F
:1002CE00E4FFFE7D207C417856E2FB08E2F908E26D
:1002DE00FA08E2CBF8120B09120CED7C007D0A1223
:1002EE000E10C3745A9F78D6F2E49E18F2E4FFFE05
:1002FE007D207C41785AE2FB08E2F908E2FA08E236
:10030E00CBF8120B09120CED7C007D0A120E10C3F5
:10031E00745A9F78D8F2E49E18F278D3E2FA08E283
:10032E00FB7C007D0AFFAE02120E107827EFF27CE6
:10033E00007D0AAF03AE02120E10782CEDF278D5C6
:10034E00E2FA08E2FB7C007D0AFFAE02120E107884
:10035E0028EFF27C007D0AAF03AE02120E10782F4A
:10036E00EDF278D7E2FA08E2FB7C007D0AFFAE02DE
:10037E00120E107829EFF27C007D0AAF03AE021246
:10038E000E107830EDF278D3E2FE08E2FFD3941E21
:10039E00EE64809480500E7806EEF208EFF2783319
:1003AE00E4F20804F2C3EF9432EE64809480400EBF
:1003BE00780EEEF208EFF27835E4F20804F2D3EF9D
:1003CE00941EEE64809480501F7836E264017002B1
:1003DE0018E2701478D3E2FF08E27816CFF208EF35
:1003EE00F27839E4F20804F27806E2FE08E2FF78C9
:1003FE000EE2FC08E2FDC39FFFEC9EFEC3EF9419D4
:10040E00EE64809480407B7816E2FE08E2FFED9F5A
:10041E00FFEC9EFEC3EF9419EE64809480406378E7
:10042E0034E26401700218E270587836E2640170AA
:10043E000218E2704D783AE26401700218E27042DE
:10044E007832E22401F218E23400F2E2FA08E2FB1A
:10045E007C007D0AFFAE02120E107844EEF208EF19
:10046E00F27C007D0AAF03AE02120E10785FECF242
:10047E0008EDF2E47833F208F208F208F27839F275
:10048E0008F27806E2FE08E2FFC3780FE29FFF183B
:10049E00E29EFEC3EF9419EE64809480404F783450
:1004AE00E26401700218E270447836E26401700270
:1004BE0018E270397832E22401F218E23400F2E2E6
:1004CE00FA08E2FB7C007D0AFFAE02120E107844A1
:1004DE00EEF208EFF27C007D0AAF03AE02120E10B0
:1004EE00785FECF208EDF2E47833F208F27816E277
:1004FE00FE08E2FFC3780FE29FFF18E29EFEC3EFF5
:10050E009419EE6480948040547836E2640170024F
:10051E0018E27049783AE26401700218E2703E788F
:10052E0032E22401F218E23400F2E2FA08E2FB7C35
:10053E00007D0AFFAE02120E107844EEF208EFF2C2
:10054E007C007D0AAF03AE02120E10785FECF2084B
:0D055E00EDF2E47835F208F27839F208F297
:10056B00E47800F208F2783BF208F27837F208F2FE
:06057B00783DF208F222B7
:10195400E4FDFCC3ED9FEC9E5015E4FBFA0BBB00C9
:0F196400010AEB64794A70F50DBD00010C80E4B7
:011973002251
:05000300007F0BDFFE91
:0100080022D5
:0B000E000000007F0B7EBEDEFEDFFC6A
:0100190022C4
:0F19F500D2A6D2A5120003C2A6120003C2A522D9
:0C1A2000C2A6D2A5120003D2A602000349
:0E1A0400A20092A6D2A5120003C2A502000302
:0C1A2C00D2A5120003A2A6C2A50200036E
:04192C0078D5EFF289
:10193000E408F278D5E2FF25E0F292A6D2A51200E3
:1019400003C2A512000378D6E204F2E2C394084071
:04195000E2021A2C69
:10183200E478D6F2D2A618F278D6E2FF25E0F2D208
:10184200A512000378D6E2FFA2A6E433FEEF4EF221
:10185200C2A512000378D5E204F2E2C3940840D88C
:0418620078D6E2FF53
:01186600225F
:1019740078D3EFF208EDF21219F57FA612192C783C
:10198400D3E2FF12192C78D4E2FF12192C021A2088
:0418FD0078D3EFF2BB
:101901001219F57FA612192C78D3E2FF12192C12A5
:1019110019F57FA712192C12183278D4EFF2D200E0
:0A192100121A04121A2078D4E2FF13
:01192B002299
:101994007D0B7F311219747D0A7F2C1219747D0816
:0C19A4007F2D1219747D807F2E021974B3
:101726001219F57FA612192C7F3212192C1219F5EF
:101736007FA712192CE478D3F212183278D3E2FD7F
:1017460025E0246AF8E4F208EFF2EDB40504D200CD
:101756008002C200121A0478D3E204F2E2C39406AD
:0517660040D7021A202B
:10132A0081AB0081AA0081AC00A0307A00A000A0A5
:10133A0000A000A000A000A000A000A000010001E1
:10134A00000100010001000100010001000100018B
:0C135A0000010001000100010001000181
:1019B000E5BC30E41053BCEF43BC08E5BDC4135490
:0919C00007FF7E00227E007F0774
:0119C90022FB
:0C1A3800759D8075BC8FE4F597F5BD220C
:1013920078AAE27003021480E4F220B20B787BE2B6
:1013A20024FFF218E234FFF220B30B787DE224FF2F
:1013B200F218E234FFF21219B0EE7033EF14601437
:1013C2001460151460161460171460182405701F39
:1013D200787F80127881800E7883800A78858006F3
:1013E200788780027889E224FFF218E234FFF278EB
:1013F200ACE2643260030214801804F2E4FFFEAD32
:1014020007ED25E0247BF9C3E3948019E3940050AF
:1014120022ED25E0249AF8E2FA08E2FBED25E02429
:101422008AF8EAF208EBF2ED25E0249AF8E4F208F1
:10143200F28023AD07ED25E0249AF8E2FA08E2FBF8
:10144200ED25E0248AF8EAF208EBF2ED25E0249A91
:10145200F8E4F20804F20FBF00010EEF64084E70C8
:101462009EE478ACF2FEFFEF25E0247AF8E4F2087D
:0E14720074A0F20FBF00010EEF64084E70E987
:011480002249
:10058100788FE26401700218E26003020703789F2A
:10059100E2700218E260030207037822F278610434
:1005A100F2E4782FF2782C04F2E47827F27828F23A
:1005B1007830F27829F21217267875E2FE7873E224
:1005C10024007913F318E23E19F318E2FE786FE282
:1005D1002400790DF318E23E19F318E2FE786BE27C
:1005E10024007909F318E23E19F37863E2640160AB
:1005F100030207037862E264016003020703786182
:10060100E264016003020703F27862F27863F27830
:1006110004E2FE08E2FF7803E22FFF18E23EFE7CCF
:10062100007D02120E10781CEEF2FA08EFF2FB7850
:100631000CE2FE08E2FF780BE22FFF18E23EFE7C9F
:10064100007D02120E10781EEEF208EFF27814E22D
:10065100FE08E2FF7813E22FFF18E23EFE7C007DE8
:1006610002120E107820EEF208EFF2C37809E29B35
:10067100FF18E29AFE121A44AC06AD07EC120CB454
:10068100A804A905AA06AB07E4FFFE7D7A7C441203
:100691000C127846120E8D781EE2FE08E2FFC37836
:1006A10011E29FFF18E29EFE121A44AC06AD07EC60
:1006B100120CB4A804A905AA06AB07E4FFFE7D7AD3
:1006C1007C44120C12784A120E8D7820E2FE08E268
:1006D100FFC37819E29FFF18E29EFE121A44AC068E
:1006E100AD07EC120CB4A804A905AA06AB07E4FFF8
:1006F100FE7D7A7C44120C12784E120E8D78227493
:1007010001F2788DE26401700218E2600302088947
:10071100789DE2700218E260030208897822F2787B
:100721006204F2E4782FF2782C7402F2E47827F272
:100731007828F27830F27829F2121726786DE2FEE5
:10074100786BE224007905F318E23E19F37875E23B
:10075100FE7873E224007915F318E23E19F318E2EA
:10076100FE786FE224007911F318E23E19F3786103
:10077100E2640160030208897862E26401600302B5
:1007810008897863E2640160030208897861F2787C
:1007910062F27863F27804E2FE08E2FF7803E22F66
:1007A100FF18E23EFE7C007D02120E10781CEEF274
:1007B100FA08EFF2FB780CE2FE08E2FF780BE22F79
:1007C100FF18E23EFE7C007D02120E10781EEEF252
:1007D10008EFF27814E2FE08E2FF7813E22FFF1827
:1007E100E23EFE7C007D02120E107820EEF208EF50
:1007F100F2C37809E29BFF18E29AFE121A44AC0692
:10080100AD07EC120CB4A804A905AA06AB07E4FFD6
:10081100FE7D7A7C44120C127846120E8D781EE20F
:10082100FE08E2FFC37811E29FFF18E29EFE121A52
:1008310044AC06AD07EC120CB4A804A905AA06AB9A
:1008410007E4FFFE7D7A7C44120C12784A120E8D69
:100851007820E2FE08E2FFC37819E29FFF18E29ECA
:10086100FE121A44AC06AD07EC120CB4A804A9059B
:10087100AA06AB07E4FFFE7D7A7C44120C12784E87
:10088100120E8D78227401F2788BE26401700218E5
:10089100E26003020A10789BE2700218E260030230
:1008A1000A107822F2786304F2E4782FF2782C743B
:1008B10003F2E47827F27828F27830F27829F212FC
:1008C1001726786DE2FE786BE224007903F318E2D3
:1008D1003E19F37871E2FE786FE22400790BF31888
:1008E100E23E19F37875E2FE7873E224007919F398
:1008F10018E23E19F37861E264016003020A10789C
:1009010062E264016003020A107863E26401600339
:10091100020A107861F27862F27863F27804E2FEFA
:1009210008E2FF7803E22FFF18E23EFE7C007D0221
:10093100120E10781CEEF2FA08EFF2FB780CE2FED0
:1009410008E2FF780BE22FFF18E23EFE7C007D02F9
:10095100120E10781EEEF208EFF27814E2FE08E2B1
:10096100FF7813E22FFF18E23EFE7C007D02120E9B
:10097100107820EEF208EFF2C37809E29BFF18E24B
:100981009AFE121A44AC06AD07EC120CB4A804A9E5
:1009910005AA06AB07E4FFFE7D7A7C44120C1278AF
:1009A10046120E8D781EE2FE08E2FFC37811E29F27
:1009B100FF18E29EFE121A44AC06AD07EC120CB40D
:1009C100A804A905AA06AB07E4FFFE7D7A7C4412C0
:1009D1000C12784A120E8D7820E2FE08E2FFC378ED
:1009E10019E29FFF18E29EFE121A44AC06AD07EC15
:1009F100120CB4A804A905AA06AB07E4FFFE7D7A90
:100A01007C44120C12784E120E8D78227401F2225F
:10136600A020AD003F0006005B004F0066006D0048
:101376007D0007007F006F0077007C0039005E006B
:031386007900717A
:0E1A1200E4F5937594FFF595759608C2A3222E
:0717B000E2FC08E2FD7E00EF
:1017B70078D1ECF208EDF2AB07AA06EB7802CEC3BC
:1017C70013CE13D8F94E24FF92A2EB5403FFE4C3C0
:1017D70013FEEF134E24FF92A1EB1392A078D108CA
:0B17E700E225E024ADF808E2F58022C6
:1017F2007827E2FD7C00E4FFFE1217B7120003E433
:10180200F580782CE2FD7C007F017E001217B71272
:101812000003E4F58078447F061217B0120003E457
:10182200F580785F7F071217B0120003E4F580227B
:0813890082CF000082CD0000BC
:1019E100538EBF53890F43A888758B33758DFEC203
:0419F1008FD28E22E1
:1019CA00538E7F5389F043890143A882758AA4758F
:0719DA008CFFC28DD28C22AC
:03000B0002176B6E
:10176B00C0E0C0F0C083C082C0D075D000C000C044
:10177B0001C002C003C004C005C006C007C28C1262
:10178B0017F2758AA4758CFFD28CD007D006D005C2
:10179B00D004D003D002D001D000D0D0D082D083DF
:0517AB00D0F0D0E03297
:03001B0002166268
:10166200C0E0C0F0C083C082C0D075D000C000C04E
:1016720001C002C003C004C005C006C007C28E7804
:10168200D0E22401F218E23400F208E220E00D7800
:10169200ACE204F278AA7401F212139278CFE2FE5D
:1016A20008E2FF7C007D0C120DBBED4C700978CF77
:1016B200F208F2785E04F2758B33758DFED28ED00D
:1016C20007D006D005D004D003D002D001D000D07C
:0A16D200D0D082D083D0F0D0E032F7
:100A1100020D59E86480F8E933E83360110460F0AD
:100A2100ED33EC337009E8FCE9FDEAFEEBFF22044B
:100A310060DED3EB9FEA9EE99DE8C2E78CF0C2F746
:100A410095F0400CE8CCF8E9CDF9EACEFAEBCFFB12
:100A5100120D2485D0F05804700320D5B3E804703A
:100A6100075002B2D5020D6392D5EC0460F7E4CCD5
:100A7100C0E0C398F8603B94186008400DD0E0FBDB
:100A8100020D3BE4FBFAC9FC8028E830E406E4C926
:100A9100FBE4CAFCE830E305E4C9CACBFCE854072F
:100AA1006010F8C3E913F9EA13FAEB13FBEC13FC3A
:100AB100D8F130F52FC3E49CFCEF9BFFEE9AFEEDDD
:100AC10099FDD0E0FBEF4E4D4C701222DB03020D7D
:100AD10060EC2CFCEF33FFEE33FEED33FDED30E740
:100AE100EB020D3BEF2BFFEE3AFEED39FDD0E0FBC3
:100AF10050130BBB0003020D63ED13FDEE13FEEF6C
:080B010013FFEC13FC020D3B95
:100B0900EC4D6011E8497017ED33EC3304600DE4E6
:100B1900FCFFFEFD22E933E8330470F8020D591297
:100B29000D2458046009E4CC248150062850090298
:100B39000D63284003020D60C0E0EB4A7044B980A0
:100B490006D0E0FB020D4FEF4E701CBD8008EBFF95
:100B5900EAFEE9FD80EBE98DF0A4FEE5F0020BF277
:100B6900E9CDF9EAFEEBFFEF89F0A4FCE5F0CE89C7
:100B7900F0A42EFFE435F0CD89F0A42DFEE435F084
:100B89008067EF4E7005BD80D780C3EF8BF0A4ACB2
:100B9900F0EE8BF0A42CFCE435F0F8EF8AF0A42CED
:100BA900E5F038FCE433CB8DF0A42CFCE5F03BF800
:100BB900EE8AF0A42CFCE5F038F8E433CF89F0A4F0
:100BC9002CFCE5F038CF3400CE89F0A42FFFE5F0F6
:100BD9003EFEE433C98DF0A42EFEE5F039CD8AF04E
:100BE900A42FFFE5F03EFEE43DFD33D0E0FB5007C6
:100BF9000BBB000F020D63EC2CFCEF33FFEE33FE51
:060C0900ED33FD020D3B7E
:100C0F00020D63EC5D046005E859047003020D5991
:100C1F00120D24580460F6EC4860F2EC7004FDFEEF
:100C2F00FF22C860DB2481C85009C39860025006B8
:100C3F00020D609850CAF582E9294B4A7005AB82C4
:100C4F00020D4F75F0007C1A7880C3EF9BEE9AED82
:100C5F0099400DC3EF9BFFEE9AFEED99FDE842F030
:100C6F00DC23ACF0D0E0FFD0E0FED0E0FDAB822083
:100C7F00E7101BEB60BAEC2CFCEF33FFEE33FEED0D
:100C8F0033FD020D3BE803F830E705C0F075F000C7
:100C9F00EF2FFFEE33FEED33FD40B830E7C280AAF1
:100CAF0075F020800E75F010800575F0087D007EC0
:100CBF00007F003392D530D503120E46EC3340102F
:100CCF00EF33FFEE33FEED33FDEC33FCD5F0ED22C9
:0E0CDF00E5F0247EA2D513CC92E7CDCEFF2205
:100CED00EDD2E7CD33EC3392D524814006E4FFFEFF
:100CFD00FDFC22FCE4CFCECDCC24E0501174FF805E
:100D0D00EDC3CC13CCCD13CDCE13CECF13CF0470FA
:070D1D00F030D5DE020E46A6
:10152E00020D5922EDA2E7D2E7F9EC3340F260F357
:10153E00B4FF08ED547F70E8020D63F82481C2E019
:10154E00C0E0F40428FAC313FCED92E7FD78E5122F
:10155E000E8DEEA2E7E9BA7F02C31334009400FAAF
:10156E0075F091A4E5F013F494FE8AF0A433E5F03F
:10157E0033248CD313FDE492E7FE7F007C3F75830A
:10158E0002ECC0E0F8EDC0E0F9EEC0E0FAEFC0E02A
:10159E00FB88F078E5120E54A8F0120C12D0E0FB86
:1015AE00D0E0FAD0E0F9D0E0F8120A18ED6480FD30
:1015BE0030E7011CD583CAED33CC33F8D0E0A2E777
:0815CE001328C313CC13FD2206
:1016DC00ECC0E0F8EDC0E0F9EEC0E0FAEFC0E0FBE2
:1016EC00120B09EC6480FC7B007A007980783F1245
:1016FC000A18121532D0E0FBD0E0FAD0E0F9D0E0B5
:10170C00F8C0E0120C12121183D0E030E70B7840D5
:0A171C0079497A0F7BD9120A1822CE
:100D2400E9D2E7C933E833F892D5EDD2E7CD33EC15
:070D340033FC5002B2D5228E
:100D3B00EC30E7100FBF000C0EBE00080DBD000419
:100D4B000BEB6014A2D5EB13FCED92E7FD2274FFC5
:100D5B00FCFDFEFF22E480F8A2D574FF13FC7D801E
:030D6B00E480EF32
:10116300BE1249253E4CCCCDBEAAAAAB3F8000009F
:101173003E7ADBB03EED63383F24BC7D3F490FDB55
:10118300ED33ECC2E7CC339200B4FF13ED547F6030
:1011930003020D597FDB7E0F7DC97C3F021277C2AC
:1011A30001C3947F401E7007EDD2E794904015EF82
:1011B300FBEEFAEDF9ECF87F007E007D807C3F12B8
:1011C3000C12D201ED33EC33248430E705E4C0E0A4
:1011D300806C04FAEDD2E754F0C333DAFD540734DC
:1011E300002323C0E0CCC0E0F8EDC0E0F9EEC0E09E
:1011F300FAEFC0E0FBE4120CB9EC24FEFC88F078B3
:10120300E5120E8DA8F0120B097B007A0079807825
:101213003F120A1878E5E2B2E7CCF208E2CDF20811
:10122300E2CEF208E2CFF2D0E0FBD0E0FAD0E0F970
:10123300D0E0F8120A1878E5120E70120C1278E555
:10124300120E8D9011637403120D6E78E5120E70F9
:10125300120B09D0E0600F246FF582E43411F5839B
:10126300120E7D120A1830010B7BDB7A0F79C978D5
:10127300BF120A18ED33EC336006ECA20092E7FCD0
:011283002248
:100D6E00C0E0EFFBEEFAEDF9ECF8120B09D0E0F56E
:100D7E00F0EFFBEEFAEDF9ECF8120E60A3A3A3A3CD
:100D8E00E8C0E0E9C0E0EAC0E0EBC0E0C0F0120B62
:100D9E0009120E7DA3A3A3A3120A18D0F0D0E0FB74
:0D0DAE00D0E0FAD0E0F9D0E0F8D5F0D42282
:030000000215D610
:0C15D600787FE4F6D8FD75812002161D18
:100DBB00BC000BBE0029EF8DF084FFADF022E4CC1C
:100DCB00F875F008EF2FFFEE33FEEC33FCEE9DECE5
:100DDB00984005FCEE9DFE0FD5F0E9E4CEFD22ED2B
:100DEB00F8F5F0EE8420D21CFEADF075F008EF2F75
:100DFB00FFED33FD4007985006D5F0F222C398FD66
:050E0B000FD5F0EA2202
:100E1000C2D5EC30E709B2D5E4C39DFDE49CFCEEFD
:100E200030E715B2D5E4C39FFFE49EFE120DBBC3AD
:100E3000E49DFDE49CFC8003120DBB30D507C3E4A8
:060E40009FFFE49EFE226C
:0E0E4600C3E49FFFE49EFEE49DFDE49CFC22BD
:0C0E5400E2FC08E2FD08E2FE08E2FF22DA
:100E6000E493FC740193FD740293FE740393FF22D8
:0D0E7000E2FB08E2F908E2FA08E2CBF82202
:100E7D00E493F8740193F9740293FA740393FB22CB
:0C0E8D00ECF208EDF208EEF208EFF222A1
:0C1A4400EE30E707C3E49FFFE49EFE22A3
:1015E200021481E493A3F8E493A34003F68001F28A
:1015F20008DFF48029E493A3F85407240CC8C3330A
:10160200C4540F4420C8834004F456800146F6DFD8
:10161200E4800B0102040810204080901284E47ED2
:10162200019360BCA3FF543F30E509541FFEE493CD
:10163200A360010ECF54C025E060A840B8E493A394
:10164200FAE493A3F8E493A3C8C582C8CAC583CABF
:10165200F0A3C8C582C8CAC583CADFE9DEE780BE77
:01139100005B
:00000001FF
