:10010C00759850438E01438E04E4F5D775D6F743AA
:03011C008E102220
:10008700E4FDFCC3ED9FEC9E5015E4FBFA0BBB00AF
:0F009700010AEB64794A70F50DBD00010C80E49D
:0100A6002237
:07011F0092A6120126D2A5F1
:080126007F0AAE071FEE70FA1C
:01012E0022AE
:0F012F00D2A6120121C2A6120126C2A5020126E4
:0F013E00D2A5120126C2A6120126D2A6020126C0
:0A016600A20012011FC2A50201262B
:0D014D00D2A5120126A2A6C2A512012622EB
:0200E000AD076A
:1000E200E4FCED25E0FD12011FC2A51201260CBCA5
:0500F20008F002014DC1
:1000A700E4FDD2A6FCED25E0FDD2A5120126A2A60D
:0F00B700E4334205C2A51201260CBC08E8AF05D0
:0100C6002217
:1000C700AB05AA0712012F7FA61200E0AF021200AC
:0900D700E0AF031200E002013E5B
:02006000AB07EC
:1000620012012F7FA61200E0AF031200E012012F4F
:100072007FA71200E01200A7AD07D200120166129C
:04008200013EAF0587
:010086002257
:1000F7007D0B7F311200C77D087F2C1200C77D085A
:050107007F2D0200C77E
:100003007FF47E01120087E4F5937594FFC2A31277
:10001300010C1200F7E4FF120060BFE510758006C3
:100023007F2D120060BF080875805B800375803FD9
:10003300D2997A1B3099FDC299BA1B057599A5808F
:100043000FBA1C0575995A8007AF021200608F9989
:0D0053000AD3EA648094B940DB7A1B80D7A1
:0300000002015AA0
:0C015A00787FE4F6D8FD758120020003D8
:00000001FF
